{
  "contractName": "DeFiLendingPool",
  "abi": [
    {
      "inputs": [],
      "stateMutability": "nonpayable",
      "type": "constructor"
    },
    {
      "anonymous": false,
      "inputs": [
        {
          "indexed": true,
          "internalType": "address",
          "name": "user",
          "type": "address"
        },
        {
          "indexed": false,
          "internalType": "uint256",
          "name": "amount",
          "type": "uint256"
        }
      ],
      "name": "Deposited",
      "type": "event"
    },
    {
      "anonymous": false,
      "inputs": [
        {
          "indexed": true,
          "internalType": "address",
          "name": "user",
          "type": "address"
        },
        {
          "indexed": false,
          "internalType": "uint256",
          "name": "amount",
          "type": "uint256"
        }
      ],
      "name": "LoanRepaid",
      "type": "event"
    },
    {
      "anonymous": false,
      "inputs": [
        {
          "indexed": true,
          "internalType": "address",
          "name": "user",
          "type": "address"
        },
        {
          "indexed": false,
          "internalType": "uint256",
          "name": "amount",
          "type": "uint256"
        }
      ],
      "name": "LoanRequested",
      "type": "event"
    },
    {
      "anonymous": false,
      "inputs": [
        {
          "indexed": true,
          "internalType": "address",
          "name": "user",
          "type": "address"
        },
        {
          "indexed": false,
          "internalType": "uint256",
          "name": "amount",
          "type": "uint256"
        }
      ],
      "name": "Withdrawn",
      "type": "event"
    },
    {
      "inputs": [],
      "name": "INTEREST_RATE_BORROWER",
      "outputs": [
        {
          "internalType": "uint256",
          "name": "",
          "type": "uint256"
        }
      ],
      "stateMutability": "view",
      "type": "function",
      "constant": true
    },
    {
      "inputs": [],
      "name": "INTEREST_RATE_LENDER",
      "outputs": [
        {
          "internalType": "uint256",
          "name": "",
          "type": "uint256"
        }
      ],
      "stateMutability": "view",
      "type": "function",
      "constant": true
    },
    {
      "inputs": [],
      "name": "SECONDS_IN_YEAR",
      "outputs": [
        {
          "internalType": "uint256",
          "name": "",
          "type": "uint256"
        }
      ],
      "stateMutability": "view",
      "type": "function",
      "constant": true
    },
    {
      "inputs": [
        {
          "internalType": "address",
          "name": "",
          "type": "address"
        }
      ],
      "name": "deposits",
      "outputs": [
        {
          "internalType": "uint256",
          "name": "amount",
          "type": "uint256"
        },
        {
          "internalType": "uint256",
          "name": "depositTime",
          "type": "uint256"
        }
      ],
      "stateMutability": "view",
      "type": "function",
      "constant": true
    },
    {
      "inputs": [
        {
          "internalType": "address",
          "name": "",
          "type": "address"
        }
      ],
      "name": "loans",
      "outputs": [
        {
          "internalType": "uint256",
          "name": "amount",
          "type": "uint256"
        },
        {
          "internalType": "uint256",
          "name": "borrowTime",
          "type": "uint256"
        },
        {
          "internalType": "uint256",
          "name": "interestRate",
          "type": "uint256"
        }
      ],
      "stateMutability": "view",
      "type": "function",
      "constant": true
    },
    {
      "inputs": [],
      "name": "owner",
      "outputs": [
        {
          "internalType": "address",
          "name": "",
          "type": "address"
        }
      ],
      "stateMutability": "view",
      "type": "function",
      "constant": true
    },
    {
      "inputs": [],
      "name": "totalBorrowed",
      "outputs": [
        {
          "internalType": "uint256",
          "name": "",
          "type": "uint256"
        }
      ],
      "stateMutability": "view",
      "type": "function",
      "constant": true
    },
    {
      "inputs": [],
      "name": "totalLiquidity",
      "outputs": [
        {
          "internalType": "uint256",
          "name": "",
          "type": "uint256"
        }
      ],
      "stateMutability": "view",
      "type": "function",
      "constant": true
    },
    {
      "stateMutability": "payable",
      "type": "receive",
      "payable": true
    },
    {
      "inputs": [],
      "name": "depositETH",
      "outputs": [],
      "stateMutability": "payable",
      "type": "function",
      "payable": true
    },
    {
      "inputs": [
        {
          "internalType": "address",
          "name": "depositor",
          "type": "address"
        }
      ],
      "name": "calculateLenderInterest",
      "outputs": [
        {
          "internalType": "uint256",
          "name": "",
          "type": "uint256"
        }
      ],
      "stateMutability": "view",
      "type": "function",
      "constant": true
    },
    {
      "inputs": [
        {
          "internalType": "address",
          "name": "depositor",
          "type": "address"
        }
      ],
      "name": "calculateTotalEarned",
      "outputs": [
        {
          "internalType": "uint256",
          "name": "",
          "type": "uint256"
        }
      ],
      "stateMutability": "view",
      "type": "function",
      "constant": true
    },
    {
      "inputs": [
        {
          "internalType": "address",
          "name": "borrower",
          "type": "address"
        }
      ],
      "name": "calculateTotalRepayment",
      "outputs": [
        {
          "internalType": "uint256",
          "name": "",
          "type": "uint256"
        }
      ],
      "stateMutability": "view",
      "type": "function",
      "constant": true
    },
    {
      "inputs": [
        {
          "internalType": "uint256",
          "name": "amount",
          "type": "uint256"
        }
      ],
      "name": "withdrawETH",
      "outputs": [],
      "stateMutability": "nonpayable",
      "type": "function"
    },
    {
      "inputs": [
        {
          "internalType": "uint256",
          "name": "amount",
          "type": "uint256"
        }
      ],
      "name": "requestLoan",
      "outputs": [],
      "stateMutability": "nonpayable",
      "type": "function"
    },
    {
      "inputs": [
        {
          "internalType": "address",
          "name": "borrower",
          "type": "address"
        }
      ],
      "name": "calculateBorrowerInterest",
      "outputs": [
        {
          "internalType": "uint256",
          "name": "",
          "type": "uint256"
        }
      ],
      "stateMutability": "view",
      "type": "function",
      "constant": true
    },
    {
      "inputs": [],
      "name": "repayLoan",
      "outputs": [],
      "stateMutability": "payable",
      "type": "function",
      "payable": true
    },
    {
      "inputs": [
        {
          "internalType": "address",
          "name": "user",
          "type": "address"
        }
      ],
      "name": "getUserDeposit",
      "outputs": [
        {
          "internalType": "uint256",
          "name": "",
          "type": "uint256"
        }
      ],
      "stateMutability": "view",
      "type": "function",
      "constant": true
    },
    {
      "inputs": [
        {
          "internalType": "address",
          "name": "user",
          "type": "address"
        }
      ],
      "name": "getUserLoan",
      "outputs": [
        {
          "internalType": "uint256",
          "name": "",
          "type": "uint256"
        }
      ],
      "stateMutability": "view",
      "type": "function",
      "constant": true
    },
    {
      "inputs": [],
      "name": "getTotalLiquidity",
      "outputs": [
        {
          "internalType": "uint256",
          "name": "",
          "type": "uint256"
        }
      ],
      "stateMutability": "view",
      "type": "function",
      "constant": true
    }
  ],
  "bytecode": "0x608060405234801561001057600080fd5b50600080546001600160a01b03191633179055610cc1806100326000396000f3fe6080604052600436106101185760003560e01c806387001a4f116100a0578063ef3bc67211610064578063ef3bc67214610341578063f14210a614610356578063f6326fb314610376578063f966ade71461037e578063fc7e286d1461038657600080fd5b806387001a4f1461025b5780638d5d34291461027b5780638da5cb5b1461029d578063bd8e8dbf146102d5578063c084b10b1461030b57600080fd5b80632ef2f309116100e75780632ef2f309146101a257806335c7e925146101c25780634c19386c146101d75780635dcc9391146101ed57806373b4086b1461020557600080fd5b806303306338146101245780630cf7dd601461015757806315770f921461016c57806318c0f3251461018257600080fd5b3661011f57005b600080fd5b34801561013057600080fd5b5061014461013f366004610bc7565b6103cf565b6040519081526020015b60405180910390f35b34801561016357600080fd5b50610144600781565b34801561017857600080fd5b5061014460035481565b34801561018e57600080fd5b5061014461019d366004610bc7565b610478565b3480156101ae57600080fd5b506101446101bd366004610bc7565b61050c565b3480156101ce57600080fd5b50600354610144565b3480156101e357600080fd5b5061014460045481565b3480156101f957600080fd5b506101446301e1338081565b34801561021157600080fd5b50610240610220366004610bc7565b600260208190526000918252604090912080546001820154919092015483565b6040805193845260208401929092529082015260600161014e565b34801561026757600080fd5b50610144610276366004610bc7565b61058d565b34801561028757600080fd5b5061029b610296366004610bf7565b61060e565b005b3480156102a957600080fd5b506000546102bd906001600160a01b031681565b6040516001600160a01b03909116815260200161014e565b3480156102e157600080fd5b506101446102f0366004610bc7565b6001600160a01b031660009081526002602052604090205490565b34801561031757600080fd5b50610144610326366004610bc7565b6001600160a01b031660009081526001602052604090205490565b34801561034d57600080fd5b50610144600581565b34801561036257600080fd5b5061029b610371366004610bf7565b6107fc565b61029b610964565b61029b610a3c565b34801561039257600080fd5b506103ba6103a1366004610bc7565b6001602081905260009182526040909120805491015482565b6040805192835260208301919091520161014e565b6001600160a01b038116600090815260016020818152604080842081518083019092528054808352930154918101919091529082036104115750600092915050565b60008160200151426104239190610c26565b905060006104366301e133806064610c3f565b8351839061044690600590610c3f565b6104509190610c3f565b61045a9190610c56565b9050600081846000015161046e9190610c78565b9695505050505050565b6001600160a01b038116600090815260016020818152604080842081518083019092528054808352930154918101919091529082036104ba5750600092915050565b60008160200151426104cc9190610c26565b905060006104df6301e133806064610c3f565b835183906104ef90600590610c3f565b6104f99190610c3f565b6105039190610c56565b95945050505050565b6001600160a01b0381166000908152600260208181526040808420815160608101835281548082526001830154948201949094529301549083015282036105565750600092915050565b60008160200151426105689190610c26565b9050600061057b6301e133806064610c3f565b60408401518451849161044691610c3f565b6001600160a01b0381166000908152600260208181526040808420815160608101835281548082526001830154948201949094529301549083015282036105d75750600092915050565b60008160200151426105e99190610c26565b905060006105fc6301e133806064610c3f565b6040840151845184916104ef91610c3f565b6000811161066e5760405162461bcd60e51b815260206004820152602260248201527f4c6f616e20616d6f756e74206d7573742062652067726561746572207468616e604482015261020360f41b60648201526084015b60405180910390fd5b8060035410156106c05760405162461bcd60e51b815260206004820181905260248201527f4e6f7420656e6f756768206c697175696469747920696e2074686520706f6f6c6044820152606401610665565b33600090815260026020526040902054156107285760405162461bcd60e51b815260206004820152602260248201527f4578697374696e67206c6f616e206d75737420626520726570616964206669726044820152611cdd60f21b6064820152608401610665565b6040805160608101825282815242602080830191825260078385019081523360009081526002928390529485209351845591516001840155905191015560048054839290610777908490610c78565b9250508190555080600360008282546107909190610c26565b9091555050604051339082156108fc029083906000818181858888f193505050501580156107c2573d6000803e3d6000fd5b5060405181815233907f06c22e520074f676b380b03ffba06f2ccf61e51cbeee2a4e084b80a19d2fc237906020015b60405180910390a250565b3360008181526001602052604081209161081590610478565b9050828260000154101561086b5760405162461bcd60e51b815260206004820152601c60248201527f496e73756666696369656e74206465706f7369742062616c616e6365000000006044820152606401610665565b60006108778285610c78565b9050804710156108c95760405162461bcd60e51b815260206004820152601e60248201527f496e73756666696369656e74206c697175696469747920696e20706f6f6c00006044820152606401610665565b838360000160008282546108dd9190610c26565b9250508190555083600360008282546108f69190610c26565b9091555050604051339082156108fc029083906000818181858888f19350505050158015610928573d6000803e3d6000fd5b5060405181815233907f7084f5476618d8e60b11ef0d7d3f06914655adb8793e28ff7f018d4c76d505d59060200160405180910390a250505050565b600034116109c25760405162461bcd60e51b815260206004820152602560248201527f4465706f73697420616d6f756e74206d75737420626520677265617465722074604482015264068616e20360dc1b6064820152608401610665565b3360009081526001602052604081208054909134918391906109e5908490610c78565b909155505042600182015560038054349190600090610a05908490610c78565b909155505060405134815233907f2da466a7b24304f47e87fa2e1e5a81b9831ce54fec19055ce277ca2f39ba42c4906020016107f1565b3360009081526002602052604090208054610a8a5760405162461bcd60e51b815260206004820152600e60248201526d27379030b1ba34bb32903637b0b760911b6044820152606401610665565b6000610a953361058d565b90506000818360000154610aa99190610c78565b905080341015610afb5760405162461bcd60e51b815260206004820152601d60248201527f496e73756666696369656e742072657061796d656e7420616d6f756e740000006044820152606401610665565b80341115610b3b57336108fc610b118334610c26565b6040518115909202916000818181858888f19350505050158015610b39573d6000803e3d6000fd5b505b825460048054600090610b4f908490610c26565b925050819055508060036000828254610b689190610c78565b90915550503360008181526002602081815260408084208481556001810185905590920192909255855490519081527fc200a1f31dd659e356e0f112c82558e25f49f7b0f84438691cd96f5cb3558823910160405180910390a2505050565b600060208284031215610bd957600080fd5b81356001600160a01b0381168114610bf057600080fd5b9392505050565b600060208284031215610c0957600080fd5b5035919050565b634e487b7160e01b600052601160045260246000fd5b81810381811115610c3957610c39610c10565b92915050565b8082028115828204841417610c3957610c39610c10565b600082610c7357634e487b7160e01b600052601260045260246000fd5b500490565b80820180821115610c3957610c39610c1056fea26469706673582212207fa3843876817ef9d403b456f48af29ccaf3847d90774d8fa27a98d2b6b7579264736f6c63430008130033",
  "immutableReferences": {},
  "source": "// SPDX-License-Identifier: UNLICENSED\r\npragma solidity ^0.8.19;\r\n\r\ncontract DeFiLendingPool {\r\n    address public owner;\r\n    uint256 public constant INTEREST_RATE_LENDER = 5; \r\n    uint256 public constant INTEREST_RATE_BORROWER = 7;\r\n    uint256 public constant SECONDS_IN_YEAR = 365 days;\r\n\r\n    struct Deposit {\r\n        uint256 amount;\r\n        uint256 depositTime;\r\n    }\r\n\r\n    struct Loan {\r\n        uint256 amount;\r\n        uint256 borrowTime;\r\n        uint256 interestRate;\r\n    }\r\n\r\n    mapping(address => Deposit) public deposits;\r\n    mapping(address => Loan) public loans;\r\n    \r\n    uint256 public totalLiquidity;\r\n    uint256 public totalBorrowed;\r\n\r\n    event Deposited(address indexed user, uint256 amount);\r\n    event Withdrawn(address indexed user, uint256 amount);\r\n    event LoanRequested(address indexed user, uint256 amount);\r\n    event LoanRepaid(address indexed user, uint256 amount);\r\n\r\n    constructor() {\r\n        owner = msg.sender;\r\n    }\r\n\r\n    modifier onlyOwner() {\r\n        require(msg.sender == owner, \"Not authorized\");\r\n        _;\r\n    }\r\n\r\n    function depositETH() public payable {\r\n        require(msg.value > 0, \"Deposit amount must be greater than 0\");\r\n        \r\n        Deposit storage deposit = deposits[msg.sender];\r\n        deposit.amount += msg.value;\r\n        deposit.depositTime = block.timestamp;\r\n\r\n        totalLiquidity += msg.value;\r\n        emit Deposited(msg.sender, msg.value);\r\n    }\r\n\r\n    function calculateLenderInterest(address depositor) public view returns (uint256) {\r\n        Deposit memory deposit = deposits[depositor];\r\n        if (deposit.amount == 0) return 0;\r\n\r\n        uint256 depositDuration = block.timestamp - deposit.depositTime;\r\n        uint256 interest = (deposit.amount * INTEREST_RATE_LENDER * depositDuration) / (SECONDS_IN_YEAR * 100);\r\n        return interest;\r\n    }\r\n\r\n // Calculate the total amount earned by a lender (deposit + interest)\r\nfunction calculateTotalEarned(address depositor) public view returns (uint256) {\r\n    Deposit memory deposit = deposits[depositor];\r\n    if (deposit.amount == 0) return 0;\r\n\r\n    uint256 depositDuration = block.timestamp - deposit.depositTime;\r\n    uint256 interest = (deposit.amount * INTEREST_RATE_LENDER * depositDuration) / (SECONDS_IN_YEAR * 100);\r\n    uint256 totalEarned = deposit.amount + interest;\r\n    return totalEarned;\r\n}\r\n\r\n// Calculate the total loan repayment (loan + interest) for a borrower\r\nfunction calculateTotalRepayment(address borrower) public view returns (uint256) {\r\n    Loan memory loan = loans[borrower];\r\n    if (loan.amount == 0) return 0;\r\n\r\n    uint256 borrowDuration = block.timestamp - loan.borrowTime;\r\n    uint256 interest = (loan.amount * loan.interestRate * borrowDuration) / (SECONDS_IN_YEAR * 100);\r\n    uint256 totalRepayment = loan.amount + interest;\r\n    return totalRepayment;\r\n}\r\n\r\n    function withdrawETH(uint256 amount) public {\r\n        Deposit storage deposit = deposits[msg.sender];\r\n        uint256 interest = calculateLenderInterest(msg.sender);\r\n        \r\n        require(deposit.amount >= amount, \"Insufficient deposit balance\");\r\n        \r\n        uint256 totalWithdrawal = amount + interest;\r\n        require(address(this).balance >= totalWithdrawal, \"Insufficient liquidity in pool\");\r\n\r\n        deposit.amount -= amount;\r\n        totalLiquidity -= amount;\r\n\r\n        payable(msg.sender).transfer(totalWithdrawal);\r\n        emit Withdrawn(msg.sender, totalWithdrawal);\r\n    }\r\n\r\n    function requestLoan(uint256 amount) public {\r\n        require(amount > 0, \"Loan amount must be greater than 0\");\r\n        require(totalLiquidity >= amount, \"Not enough liquidity in the pool\");\r\n        require(loans[msg.sender].amount == 0, \"Existing loan must be repaid first\");\r\n\r\n        loans[msg.sender] = Loan({\r\n            amount: amount,\r\n            borrowTime: block.timestamp,\r\n            interestRate: INTEREST_RATE_BORROWER\r\n        });\r\n\r\n        totalBorrowed += amount;\r\n        totalLiquidity -= amount;\r\n\r\n        payable(msg.sender).transfer(amount);\r\n        emit LoanRequested(msg.sender, amount);\r\n    }\r\n\r\n    function calculateBorrowerInterest(address borrower) public view returns (uint256) {\r\n        Loan memory loan = loans[borrower];\r\n        if (loan.amount == 0) return 0;\r\n\r\n        uint256 borrowDuration = block.timestamp - loan.borrowTime;\r\n        uint256 interest = (loan.amount * loan.interestRate * borrowDuration) / (SECONDS_IN_YEAR * 100);\r\n        return interest;\r\n    }\r\n\r\n    // function repayLoan() public payable {\r\n    //     Loan storage loan = loans[msg.sender];\r\n    //     require(loan.amount > 0, \"No active loan\");\r\n\r\n    //     uint256 interest = calculateBorrowerInterest(msg.sender);\r\n    //     uint256 totalRepayment = loan.amount + interest;\r\n\r\n    //     require(msg.value >= totalRepayment, \"Insufficient repayment amount\");\r\n\r\n    //     if (msg.value > totalRepayment) {\r\n    //         payable(msg.sender).transfer(msg.value - totalRepayment);\r\n    //     }\r\n\r\n    //     totalBorrowed -= loan.amount;\r\n    //     totalLiquidity += totalRepayment;\r\n\r\n    //     delete loans[msg.sender];\r\n    //     emit LoanRepaid(msg.sender, loan.amount);\r\n    // }\r\n    function repayLoan() public payable {\r\n    Loan storage loan = loans[msg.sender];\r\n    \r\n    // Check if the borrower has an active loan\r\n    require(loan.amount > 0, \"No active loan\");\r\n\r\n    // Calculate the interest for the loan\r\n    uint256 interest = calculateBorrowerInterest(msg.sender);\r\n    \r\n    // Calculate the total repayment (loan principal + interest)\r\n    uint256 totalRepayment = loan.amount + interest;\r\n    \r\n    // Ensure the borrower sends at least the required total repayment\r\n    require(msg.value >= totalRepayment, \"Insufficient repayment amount\");\r\n    \r\n    // If the borrower sends more than the required amount, refund the excess\r\n    if (msg.value > totalRepayment) {\r\n        payable(msg.sender).transfer(msg.value - totalRepayment);\r\n    }\r\n\r\n    // Update the liquidity and loan records\r\n    totalBorrowed -= loan.amount;\r\n    totalLiquidity += totalRepayment;\r\n\r\n    // Delete the loan record after repayment\r\n    delete loans[msg.sender];\r\n    \r\n    // Emit an event to log the repayment\r\n    emit LoanRepaid(msg.sender, loan.amount);\r\n}\r\n\r\n\r\n    receive() external payable {}\r\n\r\n    function getUserDeposit(address user) public view returns (uint256) {\r\n        return deposits[user].amount;\r\n    }\r\n\r\n    function getUserLoan(address user) public view returns (uint256) {\r\n        return loans[user].amount;\r\n    }\r\n\r\n    function getTotalLiquidity() public view returns (uint256) {\r\n        return totalLiquidity;\r\n    }\r\n}",
  "sourcePath": "C:\\Users\\user\\jayanth\\proj_phase_4\\defi-lending-platform\\contracts\\DeFiLendingPool.sol",
  "compiler": {
    "name": "solc",
    "version": "0.8.19+commit.7dd6d404.Emscripten.clang"
  },
  "schemaVersion": "3.4.16",
  "updatedAt": "2024-11-23T15:30:32.771Z",
  "networkType": "ethereum",
  "devdoc": {
    "kind": "dev",
    "methods": {},
    "version": 1
  },
  "userdoc": {
    "kind": "user",
    "methods": {},
    "version": 1
  }
}