{
  "contractName": "DeFiLendingPool",
  "abi": [
    {
      "inputs": [],
      "stateMutability": "nonpayable",
      "type": "constructor"
    },
    {
      "anonymous": false,
      "inputs": [
        {
          "indexed": true,
          "internalType": "address",
          "name": "user",
          "type": "address"
        },
        {
          "indexed": false,
          "internalType": "uint256",
          "name": "amount",
          "type": "uint256"
        }
      ],
      "name": "Deposited",
      "type": "event"
    },
    {
      "anonymous": false,
      "inputs": [
        {
          "indexed": true,
          "internalType": "address",
          "name": "user",
          "type": "address"
        },
        {
          "indexed": false,
          "internalType": "uint256",
          "name": "amount",
          "type": "uint256"
        }
      ],
      "name": "LoanRepaid",
      "type": "event"
    },
    {
      "anonymous": false,
      "inputs": [
        {
          "indexed": true,
          "internalType": "address",
          "name": "user",
          "type": "address"
        },
        {
          "indexed": false,
          "internalType": "uint256",
          "name": "amount",
          "type": "uint256"
        }
      ],
      "name": "LoanRequested",
      "type": "event"
    },
    {
      "anonymous": false,
      "inputs": [
        {
          "indexed": true,
          "internalType": "address",
          "name": "user",
          "type": "address"
        },
        {
          "indexed": false,
          "internalType": "uint256",
          "name": "amount",
          "type": "uint256"
        }
      ],
      "name": "Withdrawn",
      "type": "event"
    },
    {
      "stateMutability": "payable",
      "type": "fallback",
      "payable": true
    },
    {
      "inputs": [],
      "name": "INTEREST_RATE_BORROWER",
      "outputs": [
        {
          "internalType": "uint256",
          "name": "",
          "type": "uint256"
        }
      ],
      "stateMutability": "view",
      "type": "function",
      "constant": true
    },
    {
      "inputs": [],
      "name": "INTEREST_RATE_LENDER",
      "outputs": [
        {
          "internalType": "uint256",
          "name": "",
          "type": "uint256"
        }
      ],
      "stateMutability": "view",
      "type": "function",
      "constant": true
    },
    {
      "inputs": [],
      "name": "SECONDS_IN_YEAR",
      "outputs": [
        {
          "internalType": "uint256",
          "name": "",
          "type": "uint256"
        }
      ],
      "stateMutability": "view",
      "type": "function",
      "constant": true
    },
    {
      "inputs": [
        {
          "internalType": "address",
          "name": "",
          "type": "address"
        }
      ],
      "name": "deposits",
      "outputs": [
        {
          "internalType": "uint256",
          "name": "amount",
          "type": "uint256"
        },
        {
          "internalType": "uint256",
          "name": "depositTime",
          "type": "uint256"
        }
      ],
      "stateMutability": "view",
      "type": "function",
      "constant": true
    },
    {
      "inputs": [
        {
          "internalType": "address",
          "name": "",
          "type": "address"
        }
      ],
      "name": "loans",
      "outputs": [
        {
          "internalType": "uint256",
          "name": "amount",
          "type": "uint256"
        },
        {
          "internalType": "uint256",
          "name": "borrowTime",
          "type": "uint256"
        },
        {
          "internalType": "uint256",
          "name": "interestRate",
          "type": "uint256"
        }
      ],
      "stateMutability": "view",
      "type": "function",
      "constant": true
    },
    {
      "inputs": [],
      "name": "owner",
      "outputs": [
        {
          "internalType": "address",
          "name": "",
          "type": "address"
        }
      ],
      "stateMutability": "view",
      "type": "function",
      "constant": true
    },
    {
      "inputs": [],
      "name": "totalBorrowed",
      "outputs": [
        {
          "internalType": "uint256",
          "name": "",
          "type": "uint256"
        }
      ],
      "stateMutability": "view",
      "type": "function",
      "constant": true
    },
    {
      "inputs": [],
      "name": "totalLiquidity",
      "outputs": [
        {
          "internalType": "uint256",
          "name": "",
          "type": "uint256"
        }
      ],
      "stateMutability": "view",
      "type": "function",
      "constant": true
    },
    {
      "stateMutability": "payable",
      "type": "receive",
      "payable": true
    },
    {
      "inputs": [],
      "name": "depositETH",
      "outputs": [],
      "stateMutability": "payable",
      "type": "function",
      "payable": true
    },
    {
      "inputs": [
        {
          "internalType": "address",
          "name": "depositor",
          "type": "address"
        }
      ],
      "name": "calculateLenderInterest",
      "outputs": [
        {
          "internalType": "uint256",
          "name": "",
          "type": "uint256"
        }
      ],
      "stateMutability": "view",
      "type": "function",
      "constant": true
    },
    {
      "inputs": [
        {
          "internalType": "address",
          "name": "depositor",
          "type": "address"
        }
      ],
      "name": "calculateTotalEarned",
      "outputs": [
        {
          "internalType": "uint256",
          "name": "",
          "type": "uint256"
        }
      ],
      "stateMutability": "view",
      "type": "function",
      "constant": true
    },
    {
      "inputs": [
        {
          "internalType": "address",
          "name": "borrower",
          "type": "address"
        }
      ],
      "name": "calculateTotalRepayment",
      "outputs": [
        {
          "internalType": "uint256",
          "name": "",
          "type": "uint256"
        }
      ],
      "stateMutability": "view",
      "type": "function",
      "constant": true
    },
    {
      "inputs": [
        {
          "internalType": "uint256",
          "name": "amount",
          "type": "uint256"
        }
      ],
      "name": "withdrawETH",
      "outputs": [],
      "stateMutability": "nonpayable",
      "type": "function"
    },
    {
      "inputs": [
        {
          "internalType": "uint256",
          "name": "amount",
          "type": "uint256"
        }
      ],
      "name": "requestLoan",
      "outputs": [],
      "stateMutability": "nonpayable",
      "type": "function"
    },
    {
      "inputs": [
        {
          "internalType": "address",
          "name": "borrower",
          "type": "address"
        }
      ],
      "name": "calculateBorrowerInterest",
      "outputs": [
        {
          "internalType": "uint256",
          "name": "",
          "type": "uint256"
        }
      ],
      "stateMutability": "view",
      "type": "function",
      "constant": true
    },
    {
      "inputs": [],
      "name": "repayLoan",
      "outputs": [],
      "stateMutability": "payable",
      "type": "function",
      "payable": true
    },
    {
      "inputs": [
        {
          "internalType": "address",
          "name": "user",
          "type": "address"
        }
      ],
      "name": "getUserDeposit",
      "outputs": [
        {
          "internalType": "uint256",
          "name": "",
          "type": "uint256"
        }
      ],
      "stateMutability": "view",
      "type": "function",
      "constant": true
    },
    {
      "inputs": [
        {
          "internalType": "address",
          "name": "user",
          "type": "address"
        }
      ],
      "name": "getUserLoan",
      "outputs": [
        {
          "internalType": "uint256",
          "name": "",
          "type": "uint256"
        }
      ],
      "stateMutability": "view",
      "type": "function",
      "constant": true
    },
    {
      "inputs": [],
      "name": "getTotalLiquidity",
      "outputs": [
        {
          "internalType": "uint256",
          "name": "",
          "type": "uint256"
        }
      ],
      "stateMutability": "view",
      "type": "function",
      "constant": true
    }
  ],
  "bytecode": "0x608060405234801561001057600080fd5b50600080546001600160a01b03191633179055610d3e806100326000396000f3fe6080604052600436106101185760003560e01c806387001a4f116100a0578063ef3bc67211610064578063ef3bc672146103bd578063f14210a6146103d2578063f6326fb3146103f2578063f966ade7146103fa578063fc7e286d1461040257610137565b806387001a4f146102d75780638d5d3429146102f75780638da5cb5b14610319578063bd8e8dbf14610351578063c084b10b1461038757610137565b80632ef2f309116100e75780632ef2f3091461021e57806335c7e9251461023e5780634c19386c146102535780635dcc93911461026957806373b4086b1461028157610137565b806303306338146101a05780630cf7dd60146101d357806315770f92146101e857806318c0f325146101fe57610137565b3661013757346003600082825461012f9190610c5a565b925050819055005b60405162461bcd60e51b815260206004820152603360248201527f496e76616c6964206f7065726174696f6e2e20506c6561736520757365207468604482015272329031b7b93932b1ba10333ab731ba34b7b71760691b60648201526084015b60405180910390fd5b3480156101ac57600080fd5b506101c06101bb366004610c73565b61044b565b6040519081526020015b60405180910390f35b3480156101df57600080fd5b506101c0600781565b3480156101f457600080fd5b506101c060035481565b34801561020a57600080fd5b506101c0610219366004610c73565b6104f4565b34801561022a57600080fd5b506101c0610239366004610c73565b610588565b34801561024a57600080fd5b506003546101c0565b34801561025f57600080fd5b506101c060045481565b34801561027557600080fd5b506101c06301e1338081565b34801561028d57600080fd5b506102bc61029c366004610c73565b600260208190526000918252604090912080546001820154919092015483565b604080519384526020840192909252908201526060016101ca565b3480156102e357600080fd5b506101c06102f2366004610c73565b610609565b34801561030357600080fd5b50610317610312366004610ca3565b61068a565b005b34801561032557600080fd5b50600054610339906001600160a01b031681565b6040516001600160a01b0390911681526020016101ca565b34801561035d57600080fd5b506101c061036c366004610c73565b6001600160a01b031660009081526002602052604090205490565b34801561039357600080fd5b506101c06103a2366004610c73565b6001600160a01b031660009081526001602052604090205490565b3480156103c957600080fd5b506101c0600581565b3480156103de57600080fd5b506103176103ed366004610ca3565b610873565b6103176109db565b610317610ab3565b34801561040e57600080fd5b5061043661041d366004610c73565b6001602081905260009182526040909120805491015482565b604080519283526020830191909152016101ca565b6001600160a01b0381166000908152600160208181526040808420815180830190925280548083529301549181019190915290820361048d5750600092915050565b600081602001514261049f9190610cbc565b905060006104b26301e133806064610ccf565b835183906104c290600590610ccf565b6104cc9190610ccf565b6104d69190610ce6565b905060008184600001516104ea9190610c5a565b9695505050505050565b6001600160a01b038116600090815260016020818152604080842081518083019092528054808352930154918101919091529082036105365750600092915050565b60008160200151426105489190610cbc565b9050600061055b6301e133806064610ccf565b8351839061056b90600590610ccf565b6105759190610ccf565b61057f9190610ce6565b95945050505050565b6001600160a01b0381166000908152600260208181526040808420815160608101835281548082526001830154948201949094529301549083015282036105d25750600092915050565b60008160200151426105e49190610cbc565b905060006105f76301e133806064610ccf565b6040840151845184916104c291610ccf565b6001600160a01b0381166000908152600260208181526040808420815160608101835281548082526001830154948201949094529301549083015282036106535750600092915050565b60008160200151426106659190610cbc565b905060006106786301e133806064610ccf565b60408401518451849161056b91610ccf565b600081116106e55760405162461bcd60e51b815260206004820152602260248201527f4c6f616e20616d6f756e74206d7573742062652067726561746572207468616e604482015261020360f41b6064820152608401610197565b8060035410156107375760405162461bcd60e51b815260206004820181905260248201527f4e6f7420656e6f756768206c697175696469747920696e2074686520706f6f6c6044820152606401610197565b336000908152600260205260409020541561079f5760405162461bcd60e51b815260206004820152602260248201527f4578697374696e67206c6f616e206d75737420626520726570616964206669726044820152611cdd60f21b6064820152608401610197565b60408051606081018252828152426020808301918252600783850190815233600090815260029283905294852093518455915160018401559051910155600480548392906107ee908490610c5a565b9250508190555080600360008282546108079190610cbc565b9091555050604051339082156108fc029083906000818181858888f19350505050158015610839573d6000803e3d6000fd5b5060405181815233907f06c22e520074f676b380b03ffba06f2ccf61e51cbeee2a4e084b80a19d2fc237906020015b60405180910390a250565b3360008181526001602052604081209161088c906104f4565b905082826000015410156108e25760405162461bcd60e51b815260206004820152601c60248201527f496e73756666696369656e74206465706f7369742062616c616e6365000000006044820152606401610197565b60006108ee8285610c5a565b9050804710156109405760405162461bcd60e51b815260206004820152601e60248201527f496e73756666696369656e74206c697175696469747920696e20706f6f6c00006044820152606401610197565b838360000160008282546109549190610cbc565b92505081905550836003600082825461096d9190610cbc565b9091555050604051339082156108fc029083906000818181858888f1935050505015801561099f573d6000803e3d6000fd5b5060405181815233907f7084f5476618d8e60b11ef0d7d3f06914655adb8793e28ff7f018d4c76d505d59060200160405180910390a250505050565b60003411610a395760405162461bcd60e51b815260206004820152602560248201527f4465706f73697420616d6f756e74206d75737420626520677265617465722074604482015264068616e20360dc1b6064820152608401610197565b336000908152600160205260408120805490913491839190610a5c908490610c5a565b909155505042600182015560038054349190600090610a7c908490610c5a565b909155505060405134815233907f2da466a7b24304f47e87fa2e1e5a81b9831ce54fec19055ce277ca2f39ba42c490602001610868565b3360009081526002602052604090208054610b015760405162461bcd60e51b815260206004820152600e60248201526d27379030b1ba34bb32903637b0b760911b6044820152606401610197565b6000610b0c33610609565b90506000818360000154610b209190610c5a565b905080341015610b725760405162461bcd60e51b815260206004820152601d60248201527f496e73756666696369656e742072657061796d656e7420616d6f756e740000006044820152606401610197565b825460048054600090610b86908490610cbc565b925050819055508060036000828254610b9f9190610c5a565b9091555050336000908152600260208190526040822082815560018101839055015534811015610c08576000610bd58234610cbc565b604051909150339082156108fc029083906000818181858888f19350505050158015610c05573d6000803e3d6000fd5b50505b825460405190815233907fc200a1f31dd659e356e0f112c82558e25f49f7b0f84438691cd96f5cb35588239060200160405180910390a2505050565b634e487b7160e01b600052601160045260246000fd5b80820180821115610c6d57610c6d610c44565b92915050565b600060208284031215610c8557600080fd5b81356001600160a01b0381168114610c9c57600080fd5b9392505050565b600060208284031215610cb557600080fd5b5035919050565b81810381811115610c6d57610c6d610c44565b8082028115828204841417610c6d57610c6d610c44565b600082610d0357634e487b7160e01b600052601260045260246000fd5b50049056fea2646970667358221220cd08ae11647e8a087a80c31ded02c0b7c220cb4eac98cfb6590f62a065f1c83364736f6c63430008130033",
  "immutableReferences": {},
  "source": "// SPDX-License-Identifier: UNLICENSED\r\npragma solidity ^0.8.19;\r\n\r\ncontract DeFiLendingPool {\r\n    address public owner;\r\n    uint256 public constant INTEREST_RATE_LENDER = 5; \r\n    uint256 public constant INTEREST_RATE_BORROWER = 7;\r\n    uint256 public constant SECONDS_IN_YEAR = 365 days;\r\n\r\n    struct Deposit {\r\n        uint256 amount;\r\n        uint256 depositTime;\r\n    }\r\n\r\n    struct Loan {\r\n        uint256 amount;\r\n        uint256 borrowTime;\r\n        uint256 interestRate;\r\n    }\r\n\r\n    mapping(address => Deposit) public deposits;\r\n    mapping(address => Loan) public loans;\r\n    \r\n    uint256 public totalLiquidity;\r\n    uint256 public totalBorrowed;\r\n\r\n    event Deposited(address indexed user, uint256 amount);\r\n    event Withdrawn(address indexed user, uint256 amount);\r\n    event LoanRequested(address indexed user, uint256 amount);\r\n    event LoanRepaid(address indexed user, uint256 amount);\r\n\r\n    constructor() {\r\n        owner = msg.sender;\r\n    }\r\n\r\n    modifier onlyOwner() {\r\n        require(msg.sender == owner, \"Not authorized\");\r\n        _;\r\n    }\r\n\r\n    function depositETH() public payable {\r\n        require(msg.value > 0, \"Deposit amount must be greater than 0\");\r\n        \r\n        Deposit storage deposit = deposits[msg.sender];\r\n        deposit.amount += msg.value;\r\n        deposit.depositTime = block.timestamp;\r\n\r\n        totalLiquidity += msg.value;\r\n        emit Deposited(msg.sender, msg.value);\r\n    }\r\n\r\n    function calculateLenderInterest(address depositor) public view returns (uint256) {\r\n        Deposit memory deposit = deposits[depositor];\r\n        if (deposit.amount == 0) return 0;\r\n\r\n        uint256 depositDuration = block.timestamp - deposit.depositTime;\r\n        uint256 interest = (deposit.amount * INTEREST_RATE_LENDER * depositDuration) / (SECONDS_IN_YEAR * 100);\r\n        return interest;\r\n    }\r\n\r\n    function calculateTotalEarned(address depositor) public view returns (uint256) {\r\n        Deposit memory deposit = deposits[depositor];\r\n        if (deposit.amount == 0) return 0;\r\n\r\n        uint256 depositDuration = block.timestamp - deposit.depositTime;\r\n        uint256 interest = (deposit.amount * INTEREST_RATE_LENDER * depositDuration) / (SECONDS_IN_YEAR * 100);\r\n        uint256 totalEarned = deposit.amount + interest;\r\n        return totalEarned;\r\n    }\r\n\r\n    function calculateTotalRepayment(address borrower) public view returns (uint256) {\r\n        Loan memory loan = loans[borrower];\r\n        if (loan.amount == 0) return 0;\r\n\r\n        uint256 borrowDuration = block.timestamp - loan.borrowTime;\r\n        uint256 interest = (loan.amount * loan.interestRate * borrowDuration) / (SECONDS_IN_YEAR * 100);\r\n        uint256 totalRepayment = loan.amount + interest;\r\n        return totalRepayment;\r\n    }\r\n\r\n    function withdrawETH(uint256 amount) public {\r\n        Deposit storage deposit = deposits[msg.sender];\r\n        uint256 interest = calculateLenderInterest(msg.sender);\r\n        \r\n        require(deposit.amount >= amount, \"Insufficient deposit balance\");\r\n        \r\n        uint256 totalWithdrawal = amount + interest;\r\n        require(address(this).balance >= totalWithdrawal, \"Insufficient liquidity in pool\");\r\n\r\n        deposit.amount -= amount;\r\n        totalLiquidity -= amount;\r\n\r\n        payable(msg.sender).transfer(totalWithdrawal);\r\n        emit Withdrawn(msg.sender, totalWithdrawal);\r\n    }\r\n\r\n    function requestLoan(uint256 amount) public {\r\n        require(amount > 0, \"Loan amount must be greater than 0\");\r\n        require(totalLiquidity >= amount, \"Not enough liquidity in the pool\");\r\n        require(loans[msg.sender].amount == 0, \"Existing loan must be repaid first\");\r\n\r\n        loans[msg.sender] = Loan({\r\n            amount: amount,\r\n            borrowTime: block.timestamp,\r\n            interestRate: INTEREST_RATE_BORROWER\r\n        });\r\n\r\n        totalBorrowed += amount;\r\n        totalLiquidity -= amount;\r\n\r\n        payable(msg.sender).transfer(amount);\r\n        emit LoanRequested(msg.sender, amount);\r\n    }\r\n\r\n    function calculateBorrowerInterest(address borrower) public view returns (uint256) {\r\n        Loan memory loan = loans[borrower];\r\n        if (loan.amount == 0) return 0;\r\n\r\n        uint256 borrowDuration = block.timestamp - loan.borrowTime;\r\n        uint256 interest = (loan.amount * loan.interestRate * borrowDuration) / (SECONDS_IN_YEAR * 100);\r\n        return interest;\r\n    }\r\n\r\n    function repayLoan() public payable {\r\n    Loan storage loan = loans[msg.sender];\r\n    \r\n    require(loan.amount > 0, \"No active loan\");\r\n\r\n    uint256 interest = calculateBorrowerInterest(msg.sender);\r\n    \r\n    uint256 totalRepayment = loan.amount + interest;\r\n    \r\n    require(msg.value >= totalRepayment, \"Insufficient repayment amount\");\r\n    \r\n    totalBorrowed -= loan.amount;\r\n    totalLiquidity += totalRepayment;\r\n\r\n\r\n    delete loans[msg.sender];\r\n    \r\n\r\n    if (msg.value > totalRepayment) {\r\n        uint256 excessAmount = msg.value - totalRepayment;\r\n        payable(msg.sender).transfer(excessAmount);\r\n    }\r\n    \r\n\r\n    emit LoanRepaid(msg.sender, loan.amount);\r\n    }\r\n\r\n    fallback() external payable {\r\n        revert(\"Invalid operation. Please use the correct function.\");\r\n    }\r\n\r\n\r\n    receive() external payable {\r\n        totalLiquidity += msg.value;\r\n    }\r\n\r\n    function getUserDeposit(address user) public view returns (uint256) {\r\n        return deposits[user].amount;\r\n    }\r\n\r\n    function getUserLoan(address user) public view returns (uint256) {\r\n        return loans[user].amount;\r\n    }\r\n\r\n    function getTotalLiquidity() public view returns (uint256) {\r\n        return totalLiquidity;\r\n    }\r\n}\r\n",
  "sourcePath": "C:\\Users\\user\\jayanth\\proj_phase_5\\defi-lending-platform\\contracts\\DeFiLendingPool.sol",
  "compiler": {
    "name": "solc",
    "version": "0.8.19+commit.7dd6d404.Emscripten.clang"
  },
  "schemaVersion": "3.4.16",
  "updatedAt": "2024-12-17T07:34:54.213Z",
  "networkType": "ethereum",
  "devdoc": {
    "kind": "dev",
    "methods": {},
    "version": 1
  },
  "userdoc": {
    "kind": "user",
    "methods": {},
    "version": 1
  }
}